S00F0000384269744C464F2E73726563DD
S113000028C037C036C035C034C033C032C031C058
S113001030C02FC02EC05CC02CC02BC02AC029C049
S113002028C027C026C025C024C023C022C021C0A8
S113003020C01FC005A84CCDB2D44EB93836A90291
S11300400C50B9918688083CA6AAAA2ABE000000D2
S1130050803F11241FBECFEFD4E0DEBFCDBF22E02E
S1130060A0E0B1E001C01D92A430B207E1F7BFD017
S1130070FEC2C6CF1F93CF93DF9310E0C12FD0E011
S1130080BE01882777FD8095982F7FD12AED3FE028
S113009049EC5CE306D268D2CD5FDE4F20E030E06D
S11300A04EEF52E4FED120E030E04EEF52E4D6D0E1
S11300B039D168831F5F1F3F09F78FE780930202DE
S11300C010920302DF91CF911F91089587BD089587
S11300D01F920F920FB60F9211242F933F934F93B9
S11300E05F936F937F938F939F93AF93BF93EF939C
S11300F0FF93F8941092850010928400809103027B
S11301008F5F8093030290910201913011F4DEDF3E
S113011018C0923081F48F3718F4880FD7DF11C0DC
S113012088237CF42FEF30E0A901481B5109CA0150
S1130130880FCCDF06C0E82FF0E0ED5FFE4F808132
S1130140C5DF7894FF91EF91BF91AF919F918F910B
S11301507F916F915F914F913F912F910F900FBEBF
S11301600F901F90189590938900809388000895AC
S1130170009741F0EFECF7E03197F1F700C0000091
S11301800197C1F70895CF938AB184648AB987B17E
S1130190807F87B988B18E6088B983E884BD81E0A7
S11301A085BD109280008093810082E080936F006F
S11301B080E680937C0080EA80937A00EBE7F0E0AD
S11301C0808180748083EEE7F0E0808181608083A9
S11301D0C4E6CA505A9A8C2F90E0CADF5A988C2FE2
S11301E090E0C6DFC111F5CF5A9ACF9108951092CD
S11301F00302F894C8DF3EDF7894EAE7F0E08081F8
S113020080648083CAE7D0E009E710E06894EE24B4
S1130210E1F8FF24F394888184FF0CC0F801208165
S113022039E83203C00111248A5E95489CDF888135
S1130230806188838FE19EE40197F1F700C000009C
S1130240319903C0F0920201E6CF329903C0E092E3
S11302500201E1CF10920201DECF5058BB27AA273A
S11302600ED0E5C0D6D030F0DBD020F031F49F3F83
S113027011F41EF4CBC00EF4E095E7FBC1C0E92FE6
S1130280E7D080F3BA17620773078407950718F05D
S113029071F49EF5FFC00EF4E0950B2EBA2FA02D3D
S11302A00B01B90190010C01CA01A0011124FF271F
S11302B0591B99F0593F50F4503E68F11A16F0401A
S11302C0A22F232F342F4427585FF3CF4695379519
S11302D02795A795F0405395C9F77EF41F16BA0BDE
S11302E0620B730B840BBAF09150A1F0FF0FBB1F8C
S11302F0661F771F881FC2F70EC0BA0F621F731FD5
S1130300841F48F4879577956795B795F7959E3F31
S113031008F0B3CF9395880F08F09927EE0F9795BF
S11303208795089504D06894B111B5C0089598D004
S113033088F09F5790F0B92F9927B751A0F0D1F0CA
S1130340660F771F881F991F1AF0BA95C9F712C054
S1130350B13081F09FD0B1E008959CC0672F782F11
S11303608827B85F39F0B93FCCF3869577956795C0
S1130370B395D9F73EF490958095709561957F4F2C
S11303808F4F9F4F0895E89409C097FB3EF49095D2
S11303908095709561957F4F8F4F9F4F9923A9F05A
S11303A0F92F96E9BB279395F695879577956795E9
S11303B0B795F111F8CFFAF4BB0F11F460FF1BC02D
S11303C06F5F7F4F8F4F9F4F16C0882311F096E9C0
S11303D011C0772321F09EE8872F762F05C066236E
S11303E071F096E8862F70E060E02AF09A95660F27
S11303F0771F881FDAF7880F9695879597F90895E0
S113040097F99F6780E870E060E008959FEF80ECC3
S1130410089500240A941616170618060906089566
S113042000240A9412161306140605060895092ECC
S11304300394000C11F4882352F0BB0F40F4BF2B3B
S113044011F460FF04C06F5F7F4F8F4F9F4F08957B
S113045057FD9058440F551F59F05F3F71F0479571
S1130460880F97FB991F61F09F3F79F08795089556
S1130470121613061406551FF2CF4695F1DF08C075
S1130480161617061806991FF1CF86957105610592
S113049008940895E894BB2766277727CB0197F93A
S11304A008950BD0C4CFB5DF28F0BADF18F0952338
S11304B009F0A6CFABCF1124EECFCADFA0F3959FEE
S11304C0D1F3950F50E0551F629FF001729FBB2737
S11304D0F00DB11D639FAA27F00DB11DAA1F649FE3
S11304E06627B00DA11D661F829F2227B00DA11D96
S11304F0621F739FB00DA11D621F839FA00D611D1C
S1130500221F749F3327A00D611D231F849F600D3C
S1130510211D822F762F6A2F11249F5750408AF075
S1130520E1F088234AF0EE0FFF1FBB1F661F771F01
S1130530881F91505040A9F79E3F510570F060CF3D
S1130540AACF5F3FECF3983EDCF3869577956795E9
S1130550B795F795E7959F5FC1F7FE2B880F911D1F
S11305609695879597F908959F9305D00F9007FC6A
S1130570EE5F28C04BCF74DFE8F3E894E0E0BB27DC
S11305809F57F0F02AED3FE049EC06C0EE0FBB0F99
S1130590661F771F881F28F0B23A62077307840723
S11305A028F0B25A620B730B840BE3959A9572F799
S11305B0803830F49A95BB0F661F771F881FD2F7D7
S11305C0904813C0EF93E0FF06C0A2EA2AED3FE093
S11305D049EC5FEB54DE2BDF0F90039401FC905841
S11305E0E4E3F0E00EC09F3F31F0915020F4879592
S11305F077956795B795880F911D9695879597F987
S113060008959F938F937F936F93FF93EF939B0131
S1130610AC0147DFEF91FF9105D02F913F914F91AE
S11306205F913FCFDF93CF931F930F93FF92EF928E
S1130630DF927B018C01689405C0DA2EEF013DDF67
S1130640FE01E894A5912591359145915591AEF31C
S1130650EF0115DEFE019701A801DA9479F7DF9026
S1130660EF90FF900F911F91CF91DF910895F8942F
S1050670FFCFB6
S9030000FC
